{
  "contractName": "MarsBaseExchange",
  "abi": [
    {
      "inputs": [
        {
          "internalType": "uint256",
          "name": "",
          "type": "uint256"
        }
      ],
      "name": "offers",
      "outputs": [
        {
          "internalType": "contract IERC20",
          "name": "tokenIn",
          "type": "address"
        },
        {
          "internalType": "contract IERC20",
          "name": "tokenOut",
          "type": "address"
        },
        {
          "internalType": "uint256",
          "name": "amountIn",
          "type": "uint256"
        },
        {
          "internalType": "uint256",
          "name": "amountOut",
          "type": "uint256"
        },
        {
          "internalType": "address",
          "name": "offerer",
          "type": "address"
        },
        {
          "internalType": "address",
          "name": "payoutAddress",
          "type": "address"
        },
        {
          "internalType": "bool",
          "name": "active",
          "type": "bool"
        }
      ],
      "stateMutability": "view",
      "type": "function",
      "constant": true
    },
    {
      "inputs": [
        {
          "internalType": "address",
          "name": "tokenIn",
          "type": "address"
        },
        {
          "internalType": "address",
          "name": "tokenOut",
          "type": "address"
        },
        {
          "internalType": "uint256",
          "name": "amountIn",
          "type": "uint256"
        },
        {
          "internalType": "uint256",
          "name": "amountOut",
          "type": "uint256"
        },
        {
          "internalType": "address",
          "name": "payoutAddress",
          "type": "address"
        }
      ],
      "name": "createOffer",
      "outputs": [
        {
          "internalType": "uint256",
          "name": "",
          "type": "uint256"
        }
      ],
      "stateMutability": "payable",
      "type": "function",
      "payable": true
    },
    {
      "inputs": [
        {
          "internalType": "address",
          "name": "tokenIn",
          "type": "address"
        },
        {
          "internalType": "address",
          "name": "tokenOut",
          "type": "address"
        },
        {
          "internalType": "uint256",
          "name": "amountIn",
          "type": "uint256"
        },
        {
          "internalType": "uint256",
          "name": "amountOut",
          "type": "uint256"
        },
        {
          "internalType": "address",
          "name": "offerer",
          "type": "address"
        },
        {
          "internalType": "address",
          "name": "payoutAddress",
          "type": "address"
        }
      ],
      "name": "createOffer",
      "outputs": [
        {
          "internalType": "uint256",
          "name": "",
          "type": "uint256"
        }
      ],
      "stateMutability": "payable",
      "type": "function",
      "payable": true
    },
    {
      "inputs": [
        {
          "internalType": "address",
          "name": "tokenIn",
          "type": "address"
        },
        {
          "internalType": "address",
          "name": "tokenOut",
          "type": "address"
        },
        {
          "internalType": "uint256",
          "name": "amountIn",
          "type": "uint256"
        },
        {
          "internalType": "uint256",
          "name": "amountOut",
          "type": "uint256"
        }
      ],
      "name": "createOffer",
      "outputs": [
        {
          "internalType": "uint256",
          "name": "",
          "type": "uint256"
        }
      ],
      "stateMutability": "payable",
      "type": "function",
      "payable": true
    },
    {
      "inputs": [
        {
          "internalType": "uint256",
          "name": "offerId",
          "type": "uint256"
        }
      ],
      "name": "cancelOffer",
      "outputs": [
        {
          "internalType": "uint256",
          "name": "",
          "type": "uint256"
        }
      ],
      "stateMutability": "payable",
      "type": "function",
      "payable": true
    },
    {
      "inputs": [
        {
          "internalType": "uint256",
          "name": "offerId",
          "type": "uint256"
        },
        {
          "internalType": "uint256",
          "name": "amountIn",
          "type": "uint256"
        },
        {
          "internalType": "uint256",
          "name": "amountOut",
          "type": "uint256"
        }
      ],
      "name": "acceptOffer",
      "outputs": [
        {
          "internalType": "uint256",
          "name": "",
          "type": "uint256"
        }
      ],
      "stateMutability": "payable",
      "type": "function",
      "payable": true
    }
  ],
  "bytecode": "0x608060405234801561001057600080fd5b5061187f806100206000396000f3fe6080604052600436106100555760003560e01c806329afb6921461005a57806350c7566c1461008a5780638a72ea6a146100ba578063cc1d179b146100fd578063e63c88dc1461012d578063ef706adf1461015d575b600080fd5b610074600480360381019061006f91906113d8565b61018d565b6040516100819190611462565b60405180910390f35b6100a4600480360381019061009f919061147d565b6103bb565b6040516100b19190611462565b60405180910390f35b3480156100c657600080fd5b506100e160048036038101906100dc919061150a565b6105ea565b6040516100f497969594939291906115c0565b60405180910390f35b6101176004803603810190610112919061162f565b6106b9565b6040516101249190611462565b60405180910390f35b61014760048036038101906101429190611696565b6108e6565b6040516101549190611462565b60405180910390f35b6101776004803603810190610172919061150a565b610d8e565b6040516101849190611462565b60405180910390f35b60008061019e878787873388611185565b905080600160008054815260200190815260200160002060008201518160000160006101000a81548173ffffffffffffffffffffffffffffffffffffffff021916908373ffffffffffffffffffffffffffffffffffffffff16021790555060208201518160010160006101000a81548173ffffffffffffffffffffffffffffffffffffffff021916908373ffffffffffffffffffffffffffffffffffffffff160217905550604082015181600201556060820151816003015560808201518160040160006101000a81548173ffffffffffffffffffffffffffffffffffffffff021916908373ffffffffffffffffffffffffffffffffffffffff16021790555060a08201518160050160006101000a81548173ffffffffffffffffffffffffffffffffffffffff021916908373ffffffffffffffffffffffffffffffffffffffff16021790555060c08201518160050160146101000a81548160ff021916908315150217905550905050806000015173ffffffffffffffffffffffffffffffffffffffff166323b872dd3330886040518463ffffffff1660e01b8152600401610349939291906116e9565b6020604051808303816000875af1158015610368573d6000803e3d6000fd5b505050506040513d601f19601f8201168201806040525081019061038c919061174c565b61039557600080fd5b6000808154809291906103a7906117a8565b919050555060005491505095945050505050565b6000806103cc888888888888611185565b905080600160008054815260200190815260200160002060008201518160000160006101000a81548173ffffffffffffffffffffffffffffffffffffffff021916908373ffffffffffffffffffffffffffffffffffffffff16021790555060208201518160010160006101000a81548173ffffffffffffffffffffffffffffffffffffffff021916908373ffffffffffffffffffffffffffffffffffffffff160217905550604082015181600201556060820151816003015560808201518160040160006101000a81548173ffffffffffffffffffffffffffffffffffffffff021916908373ffffffffffffffffffffffffffffffffffffffff16021790555060a08201518160050160006101000a81548173ffffffffffffffffffffffffffffffffffffffff021916908373ffffffffffffffffffffffffffffffffffffffff16021790555060c08201518160050160146101000a81548160ff021916908315150217905550905050806000015173ffffffffffffffffffffffffffffffffffffffff166323b872dd3330896040518463ffffffff1660e01b8152600401610577939291906116e9565b6020604051808303816000875af1158015610596573d6000803e3d6000fd5b505050506040513d601f19601f820116820180604052508101906105ba919061174c565b6105c357600080fd5b6000808154809291906105d5906117a8565b91905055506000549150509695505050505050565b60016020528060005260406000206000915090508060000160009054906101000a900473ffffffffffffffffffffffffffffffffffffffff16908060010160009054906101000a900473ffffffffffffffffffffffffffffffffffffffff16908060020154908060030154908060040160009054906101000a900473ffffffffffffffffffffffffffffffffffffffff16908060050160009054906101000a900473ffffffffffffffffffffffffffffffffffffffff16908060050160149054906101000a900460ff16905087565b6000806106ca868686863333611185565b905080600160008054815260200190815260200160002060008201518160000160006101000a81548173ffffffffffffffffffffffffffffffffffffffff021916908373ffffffffffffffffffffffffffffffffffffffff16021790555060208201518160010160006101000a81548173ffffffffffffffffffffffffffffffffffffffff021916908373ffffffffffffffffffffffffffffffffffffffff160217905550604082015181600201556060820151816003015560808201518160040160006101000a81548173ffffffffffffffffffffffffffffffffffffffff021916908373ffffffffffffffffffffffffffffffffffffffff16021790555060a08201518160050160006101000a81548173ffffffffffffffffffffffffffffffffffffffff021916908373ffffffffffffffffffffffffffffffffffffffff16021790555060c08201518160050160146101000a81548160ff021916908315150217905550905050806000015173ffffffffffffffffffffffffffffffffffffffff166323b872dd3330876040518463ffffffff1660e01b8152600401610875939291906116e9565b6020604051808303816000875af1158015610894573d6000803e3d6000fd5b505050506040513d601f19601f820116820180604052508101906108b8919061174c565b6108c157600080fd5b6000808154809291906108d3906117a8565b9190505550600054915050949350505050565b600080600160008681526020019081526020016000206040518060e00160405290816000820160009054906101000a900473ffffffffffffffffffffffffffffffffffffffff1673ffffffffffffffffffffffffffffffffffffffff1673ffffffffffffffffffffffffffffffffffffffff1681526020016001820160009054906101000a900473ffffffffffffffffffffffffffffffffffffffff1673ffffffffffffffffffffffffffffffffffffffff1673ffffffffffffffffffffffffffffffffffffffff16815260200160028201548152602001600382015481526020016004820160009054906101000a900473ffffffffffffffffffffffffffffffffffffffff1673ffffffffffffffffffffffffffffffffffffffff1673ffffffffffffffffffffffffffffffffffffffff1681526020016005820160009054906101000a900473ffffffffffffffffffffffffffffffffffffffff1673ffffffffffffffffffffffffffffffffffffffff1673ffffffffffffffffffffffffffffffffffffffff1681526020016005820160149054906101000a900460ff1615151515815250509050600115158160c00151151514610aa957610aa86117f1565b5b83816040015114610abd57610abc6117f1565b5b82816060015114610ad157610ad06117f1565b5b806020015173ffffffffffffffffffffffffffffffffffffffff166323b872dd338360a0015184606001516040518463ffffffff1660e01b8152600401610b1a939291906116e9565b6020604051808303816000875af1158015610b39573d6000803e3d6000fd5b505050506040513d601f19601f82011682018060405250810190610b5d919061174c565b610b6657600080fd5b806000015173ffffffffffffffffffffffffffffffffffffffff1663a9059cbb3383604001516040518363ffffffff1660e01b8152600401610ba9929190611820565b6020604051808303816000875af1158015610bc8573d6000803e3d6000fd5b505050506040513d601f19601f82011682018060405250810190610bec919061174c565b610bf557600080fd5b60008160c001901515908115158152505060008160400181815250506000816060018181525050806001600087815260200190815260200160002060008201518160000160006101000a81548173ffffffffffffffffffffffffffffffffffffffff021916908373ffffffffffffffffffffffffffffffffffffffff16021790555060208201518160010160006101000a81548173ffffffffffffffffffffffffffffffffffffffff021916908373ffffffffffffffffffffffffffffffffffffffff160217905550604082015181600201556060820151816003015560808201518160040160006101000a81548173ffffffffffffffffffffffffffffffffffffffff021916908373ffffffffffffffffffffffffffffffffffffffff16021790555060a08201518160050160006101000a81548173ffffffffffffffffffffffffffffffffffffffff021916908373ffffffffffffffffffffffffffffffffffffffff16021790555060c08201518160050160146101000a81548160ff021916908315150217905550905050849150509392505050565b600080600160008481526020019081526020016000206040518060e00160405290816000820160009054906101000a900473ffffffffffffffffffffffffffffffffffffffff1673ffffffffffffffffffffffffffffffffffffffff1673ffffffffffffffffffffffffffffffffffffffff1681526020016001820160009054906101000a900473ffffffffffffffffffffffffffffffffffffffff1673ffffffffffffffffffffffffffffffffffffffff1673ffffffffffffffffffffffffffffffffffffffff16815260200160028201548152602001600382015481526020016004820160009054906101000a900473ffffffffffffffffffffffffffffffffffffffff1673ffffffffffffffffffffffffffffffffffffffff1673ffffffffffffffffffffffffffffffffffffffff1681526020016005820160009054906101000a900473ffffffffffffffffffffffffffffffffffffffff1673ffffffffffffffffffffffffffffffffffffffff1673ffffffffffffffffffffffffffffffffffffffff1681526020016005820160149054906101000a900460ff1615151515815250509050600115158160c00151151514610f5157610f506117f1565b5b6000816040015111610f6657610f656117f1565b5b806000015173ffffffffffffffffffffffffffffffffffffffff1663a9059cbb826080015183604001516040518363ffffffff1660e01b8152600401610fad929190611820565b6020604051808303816000875af1158015610fcc573d6000803e3d6000fd5b505050506040513d601f19601f82011682018060405250810190610ff0919061174c565b610ff957600080fd5b60008160c00190151590811515815250506000816040018181525050806001600085815260200190815260200160002060008201518160000160006101000a81548173ffffffffffffffffffffffffffffffffffffffff021916908373ffffffffffffffffffffffffffffffffffffffff16021790555060208201518160010160006101000a81548173ffffffffffffffffffffffffffffffffffffffff021916908373ffffffffffffffffffffffffffffffffffffffff160217905550604082015181600201556060820151816003015560808201518160040160006101000a81548173ffffffffffffffffffffffffffffffffffffffff021916908373ffffffffffffffffffffffffffffffffffffffff16021790555060a08201518160050160006101000a81548173ffffffffffffffffffffffffffffffffffffffff021916908373ffffffffffffffffffffffffffffffffffffffff16021790555060c08201518160050160146101000a81548160ff02191690831515021790555090505082915050919050565b61118d6112a8565b6111956112a8565b87816000019073ffffffffffffffffffffffffffffffffffffffff16908173ffffffffffffffffffffffffffffffffffffffff168152505086816020019073ffffffffffffffffffffffffffffffffffffffff16908173ffffffffffffffffffffffffffffffffffffffff1681525050858160400181815250508481606001818152505083816080019073ffffffffffffffffffffffffffffffffffffffff16908173ffffffffffffffffffffffffffffffffffffffff1681525050828160a0019073ffffffffffffffffffffffffffffffffffffffff16908173ffffffffffffffffffffffffffffffffffffffff168152505060018160c0019015159081151581525050809150509695505050505050565b6040518060e00160405280600073ffffffffffffffffffffffffffffffffffffffff168152602001600073ffffffffffffffffffffffffffffffffffffffff1681526020016000815260200160008152602001600073ffffffffffffffffffffffffffffffffffffffff168152602001600073ffffffffffffffffffffffffffffffffffffffff1681526020016000151581525090565b600080fd5b600073ffffffffffffffffffffffffffffffffffffffff82169050919050565b600061136f82611344565b9050919050565b61137f81611364565b811461138a57600080fd5b50565b60008135905061139c81611376565b92915050565b6000819050919050565b6113b5816113a2565b81146113c057600080fd5b50565b6000813590506113d2816113ac565b92915050565b600080600080600060a086880312156113f4576113f361133f565b5b60006114028882890161138d565b95505060206114138882890161138d565b9450506040611424888289016113c3565b9350506060611435888289016113c3565b92505060806114468882890161138d565b9150509295509295909350565b61145c816113a2565b82525050565b60006020820190506114776000830184611453565b92915050565b60008060008060008060c0878903121561149a5761149961133f565b5b60006114a889828a0161138d565b96505060206114b989828a0161138d565b95505060406114ca89828a016113c3565b94505060606114db89828a016113c3565b93505060806114ec89828a0161138d565b92505060a06114fd89828a0161138d565b9150509295509295509295565b6000602082840312156115205761151f61133f565b5b600061152e848285016113c3565b91505092915050565b6000819050919050565b600061155c61155761155284611344565b611537565b611344565b9050919050565b600061156e82611541565b9050919050565b600061158082611563565b9050919050565b61159081611575565b82525050565b61159f81611364565b82525050565b60008115159050919050565b6115ba816115a5565b82525050565b600060e0820190506115d5600083018a611587565b6115e26020830189611587565b6115ef6040830188611453565b6115fc6060830187611453565b6116096080830186611596565b61161660a0830185611596565b61162360c08301846115b1565b98975050505050505050565b600080600080608085870312156116495761164861133f565b5b60006116578782880161138d565b94505060206116688782880161138d565b9350506040611679878288016113c3565b925050606061168a878288016113c3565b91505092959194509250565b6000806000606084860312156116af576116ae61133f565b5b60006116bd868287016113c3565b93505060206116ce868287016113c3565b92505060406116df868287016113c3565b9150509250925092565b60006060820190506116fe6000830186611596565b61170b6020830185611596565b6117186040830184611453565b949350505050565b611729816115a5565b811461173457600080fd5b50565b60008151905061174681611720565b92915050565b6000602082840312156117625761176161133f565b5b600061177084828501611737565b91505092915050565b7f4e487b7100000000000000000000000000000000000000000000000000000000600052601160045260246000fd5b60006117b3826113a2565b91507fffffffffffffffffffffffffffffffffffffffffffffffffffffffffffffffff8214156117e6576117e5611779565b5b600182019050919050565b7f4e487b7100000000000000000000000000000000000000000000000000000000600052600160045260246000fd5b60006040820190506118356000830185611596565b6118426020830184611453565b939250505056fea264697066735822122050987be9d727592e533e35325317856935899b73cc691b5ee30511a9a7d9fcb564736f6c634300080a0033",
  "immutableReferences": {},
  "source": "// SPDX-License-Identifier: MIT\npragma solidity >=0.4.22 <0.9.0;\n\nimport \"@openzeppelin/contracts/utils/math/SafeMath.sol\";\nimport \"@openzeppelin/contracts/token/ERC20/IERC20.sol\";\n\ncontract MarsBaseExchange {\n\n    using SafeMath for uint256;\n\n    uint256 nextOfferId;\n\n    struct MBOffer {\n      IERC20 tokenIn;\n      IERC20 tokenOut;\n      uint256 amountIn;\n      uint256 amountOut;\n      address offerer;\n      address payoutAddress;\n      bool active;\n    }\n\n    mapping (uint256 => MBOffer) public offers;\n\n    function createOffer(address tokenIn, address tokenOut, uint256 amountIn, uint256 amountOut, address offerer, address payoutAddress) public payable returns (uint256) {\n      MBOffer memory offer = initOffer(tokenIn, tokenOut, amountIn, amountOut, offerer, payoutAddress);\n      offers[nextOfferId] = offer;\n\n      require(offer.tokenIn.transferFrom(msg.sender, address(this), amountIn));\n      \n      nextOfferId ++;\n\n      return nextOfferId;\n    }\n\n    function createOffer(address tokenIn, address tokenOut, uint256 amountIn, uint256 amountOut, address payoutAddress) public payable returns (uint256) {\n      MBOffer memory offer = initOffer(tokenIn, tokenOut, amountIn, amountOut, msg.sender, payoutAddress);\n      offers[nextOfferId] = offer;\n\n      require(offer.tokenIn.transferFrom(msg.sender, address(this), amountIn));\n      \n      nextOfferId ++;\n\n      return nextOfferId;\n    }\n\n    function createOffer(address tokenIn, address tokenOut, uint256 amountIn, uint256 amountOut) public payable returns (uint256) {\n\n      MBOffer memory offer = initOffer(tokenIn, tokenOut, amountIn, amountOut, msg.sender, msg.sender);\n      offers[nextOfferId] = offer;\n\n      require(offer.tokenIn.transferFrom(msg.sender, address(this), amountIn));\n      \n      nextOfferId ++;\n\n      return nextOfferId;\n    }\n\n    function initOffer(address tokenIn, address tokenOut, uint256 amountIn, uint256 amountOut, address offerer, address payoutAddress) private pure returns (MBOffer memory) {\n      MBOffer memory offer;\n      \n      offer.tokenIn = IERC20(tokenIn);\n      offer.tokenOut = IERC20(tokenOut);\n      offer.amountIn = amountIn;\n      offer.amountOut = amountOut;\n      offer.offerer = offerer;\n      offer.payoutAddress = payoutAddress;\n      offer.active = true;\n\n      return offer;\n    }\n\n    function cancelOffer(uint256 offerId) public payable returns (uint256) {\n      MBOffer memory offer = offers[offerId];\n\n      assert(offer.active == true);\n      assert(offer.amountIn > 0);\n\n      require(offer.tokenIn.transfer(offer.offerer, offer.amountIn));\n\n      offer.active = false;\n      offer.amountIn = 0;\n\n      offers[offerId] = offer;\n\n      return offerId;\n    }\n\n    function acceptOffer(uint256 offerId, uint256 amountIn, uint256 amountOut) public payable returns (uint256) {\n      MBOffer memory offer = offers[offerId];\n\n      assert(offer.active == true);\n      assert(offer.amountIn == amountIn);\n      assert(offer.amountOut == amountOut);\n\n      require(offer.tokenOut.transferFrom(msg.sender, offer.payoutAddress, offer.amountOut));\n      require(offer.tokenIn.transfer(msg.sender, offer.amountIn));\n\n      offer.active = false;\n      offer.amountIn = 0;\n      offer.amountOut = 0;\n\n      offers[offerId] = offer;\n\n      return offerId;\n    }\n\n}\n",
  "sourcePath": "C:\\Users\\sshef\\Downloads\\projects\\marsbase\\contracts\\MarsBaseExchange.sol",
  "compiler": {
    "name": "solc",
    "version": "0.8.10+commit.fc410830.Emscripten.clang"
  },
  "schemaVersion": "3.4.3",
  "updatedAt": "2021-12-05T11:13:16.681Z",
  "networkType": "ethereum",
  "devdoc": {
    "kind": "dev",
    "methods": {},
    "version": 1
  },
  "userdoc": {
    "kind": "user",
    "methods": {},
    "version": 1
  }
}