{
  "contractName": "MarsBaseExchange",
  "abi": [
    {
      "inputs": [],
      "stateMutability": "nonpayable",
      "type": "constructor"
    },
    {
      "inputs": [
        {
          "internalType": "uint256",
          "name": "",
          "type": "uint256"
        }
      ],
      "name": "offers",
      "outputs": [
        {
          "internalType": "contract IERC20",
          "name": "tokenIn",
          "type": "address"
        },
        {
          "internalType": "contract IERC20",
          "name": "tokenOut",
          "type": "address"
        },
        {
          "internalType": "uint256",
          "name": "amountIn",
          "type": "uint256"
        },
        {
          "internalType": "uint256",
          "name": "amountOut",
          "type": "uint256"
        },
        {
          "internalType": "address",
          "name": "offerer",
          "type": "address"
        },
        {
          "internalType": "address",
          "name": "payoutAddress",
          "type": "address"
        }
      ],
      "stateMutability": "view",
      "type": "function",
      "constant": true
    },
    {
      "inputs": [
        {
          "internalType": "address",
          "name": "tokenIn",
          "type": "address"
        },
        {
          "internalType": "address",
          "name": "tokenOut",
          "type": "address"
        },
        {
          "internalType": "uint256",
          "name": "amountIn",
          "type": "uint256"
        },
        {
          "internalType": "uint256",
          "name": "amountOut",
          "type": "uint256"
        },
        {
          "internalType": "address",
          "name": "payoutAddress",
          "type": "address"
        }
      ],
      "name": "createOffer",
      "outputs": [
        {
          "internalType": "uint256",
          "name": "",
          "type": "uint256"
        }
      ],
      "stateMutability": "payable",
      "type": "function",
      "payable": true
    }
  ],
  "bytecode": "0x608060405234801561001057600080fd5b506106ea806100206000396000f3fe6080604052600436106100295760003560e01c806329afb6921461002e5780638a72ea6a1461005e575b600080fd5b610048600480360381019061004391906103ff565b6100a0565b6040516100559190610489565b60405180910390f35b34801561006a57600080fd5b50610085600480360381019061008091906104a4565b6102aa565b6040516100979695949392919061053f565b60405180910390f35b60008060016000805481526020019081526020016000209050868160000160006101000a81548173ffffffffffffffffffffffffffffffffffffffff021916908373ffffffffffffffffffffffffffffffffffffffff160217905550858160010160006101000a81548173ffffffffffffffffffffffffffffffffffffffff021916908373ffffffffffffffffffffffffffffffffffffffff160217905550848160020181905550838160030181905550338160040160006101000a81548173ffffffffffffffffffffffffffffffffffffffff021916908373ffffffffffffffffffffffffffffffffffffffff160217905550828160050160006101000a81548173ffffffffffffffffffffffffffffffffffffffff021916908373ffffffffffffffffffffffffffffffffffffffff1602179055508060000160009054906101000a900473ffffffffffffffffffffffffffffffffffffffff1673ffffffffffffffffffffffffffffffffffffffff166323b872dd3330886040518463ffffffff1660e01b8152600401610238939291906105a0565b6020604051808303816000875af1158015610257573d6000803e3d6000fd5b505050506040513d601f19601f8201168201806040525081019061027b919061060f565b61028457600080fd5b6000808154809291906102969061066b565b919050555060005491505095945050505050565b60016020528060005260406000206000915090508060000160009054906101000a900473ffffffffffffffffffffffffffffffffffffffff16908060010160009054906101000a900473ffffffffffffffffffffffffffffffffffffffff16908060020154908060030154908060040160009054906101000a900473ffffffffffffffffffffffffffffffffffffffff16908060050160009054906101000a900473ffffffffffffffffffffffffffffffffffffffff16905086565b600080fd5b600073ffffffffffffffffffffffffffffffffffffffff82169050919050565b60006103968261036b565b9050919050565b6103a68161038b565b81146103b157600080fd5b50565b6000813590506103c38161039d565b92915050565b6000819050919050565b6103dc816103c9565b81146103e757600080fd5b50565b6000813590506103f9816103d3565b92915050565b600080600080600060a0868803121561041b5761041a610366565b5b6000610429888289016103b4565b955050602061043a888289016103b4565b945050604061044b888289016103ea565b935050606061045c888289016103ea565b925050608061046d888289016103b4565b9150509295509295909350565b610483816103c9565b82525050565b600060208201905061049e600083018461047a565b92915050565b6000602082840312156104ba576104b9610366565b5b60006104c8848285016103ea565b91505092915050565b6000819050919050565b60006104f66104f16104ec8461036b565b6104d1565b61036b565b9050919050565b6000610508826104db565b9050919050565b600061051a826104fd565b9050919050565b61052a8161050f565b82525050565b6105398161038b565b82525050565b600060c0820190506105546000830189610521565b6105616020830188610521565b61056e604083018761047a565b61057b606083018661047a565b6105886080830185610530565b61059560a0830184610530565b979650505050505050565b60006060820190506105b56000830186610530565b6105c26020830185610530565b6105cf604083018461047a565b949350505050565b60008115159050919050565b6105ec816105d7565b81146105f757600080fd5b50565b600081519050610609816105e3565b92915050565b60006020828403121561062557610624610366565b5b6000610633848285016105fa565b91505092915050565b7f4e487b7100000000000000000000000000000000000000000000000000000000600052601160045260246000fd5b6000610676826103c9565b91507fffffffffffffffffffffffffffffffffffffffffffffffffffffffffffffffff8214156106a9576106a861063c565b5b60018201905091905056fea26469706673582212204cc4bbab247bea9331356add7abccb181f050435b39b368ea0ec17676b9482ee64736f6c634300080a0033",
  "immutableReferences": {},
  "source": "// SPDX-License-Identifier: MIT\npragma solidity >=0.4.22 <0.9.0;\n\nimport \"@openzeppelin/contracts/utils/math/SafeMath.sol\";\nimport \"@openzeppelin/contracts/token/ERC20/IERC20.sol\";\n\ncontract MarsBaseExchange {\n\n    using SafeMath for uint256;\n\n    uint256 nextOfferId;\n    struct MBOffer {\n      IERC20 tokenIn;\n      IERC20 tokenOut;\n      uint256 amountIn;\n      uint256 amountOut;\n      address offerer;\n      address payoutAddress;\n    }\n\n    constructor() public {\n    }\n\n    mapping (uint256 => MBOffer) public offers;\n\n    function createOffer(address tokenIn, address tokenOut, uint256 amountIn, uint256 amountOut, address payoutAddress) public payable returns (uint256) {\n      MBOffer storage offer = offers[nextOfferId];\n      \n      offer.tokenIn = IERC20(tokenIn);\n      offer.tokenOut = IERC20(tokenOut);\n      offer.amountIn = amountIn;\n      offer.amountOut = amountOut;\n      offer.offerer = msg.sender;\n      offer.payoutAddress = payoutAddress;\n\n      require(offer.tokenIn.transferFrom(msg.sender, address(this), amountIn));\n      nextOfferId ++;\n      return nextOfferId;\n    }\n\n}\n",
  "sourcePath": "C:\\Users\\sshef\\Downloads\\projects\\marsbase\\contracts\\MarsBaseExchange.sol",
  "compiler": {
    "name": "solc",
    "version": "0.8.10+commit.fc410830.Emscripten.clang"
  },
  "schemaVersion": "3.4.3",
  "updatedAt": "2021-12-05T03:42:11.123Z",
  "networkType": "ethereum",
  "devdoc": {
    "kind": "dev",
    "methods": {},
    "version": 1
  },
  "userdoc": {
    "kind": "user",
    "methods": {},
    "version": 1
  }
}