{
  "contractName": "MarsBaseExchange",
  "abi": [
    {
      "inputs": [
        {
          "internalType": "uint256",
          "name": "",
          "type": "uint256"
        }
      ],
      "name": "offers",
      "outputs": [
        {
          "internalType": "contract IERC20",
          "name": "tokenIn",
          "type": "address"
        },
        {
          "internalType": "contract IERC20",
          "name": "tokenOut",
          "type": "address"
        },
        {
          "internalType": "uint256",
          "name": "amountIn",
          "type": "uint256"
        },
        {
          "internalType": "uint256",
          "name": "amountOut",
          "type": "uint256"
        },
        {
          "internalType": "address",
          "name": "offerer",
          "type": "address"
        },
        {
          "internalType": "address",
          "name": "payoutAddress",
          "type": "address"
        }
      ],
      "stateMutability": "view",
      "type": "function",
      "constant": true
    },
    {
      "inputs": [
        {
          "internalType": "address",
          "name": "tokenIn",
          "type": "address"
        },
        {
          "internalType": "address",
          "name": "tokenOut",
          "type": "address"
        },
        {
          "internalType": "uint256",
          "name": "amountIn",
          "type": "uint256"
        },
        {
          "internalType": "uint256",
          "name": "amountOut",
          "type": "uint256"
        },
        {
          "internalType": "address",
          "name": "payoutAddress",
          "type": "address"
        }
      ],
      "name": "createOffer",
      "outputs": [
        {
          "internalType": "uint256",
          "name": "",
          "type": "uint256"
        }
      ],
      "stateMutability": "payable",
      "type": "function",
      "payable": true
    },
    {
      "inputs": [
        {
          "internalType": "address",
          "name": "tokenIn",
          "type": "address"
        },
        {
          "internalType": "address",
          "name": "tokenOut",
          "type": "address"
        },
        {
          "internalType": "uint256",
          "name": "amountIn",
          "type": "uint256"
        },
        {
          "internalType": "uint256",
          "name": "amountOut",
          "type": "uint256"
        },
        {
          "internalType": "address",
          "name": "offerer",
          "type": "address"
        },
        {
          "internalType": "address",
          "name": "payoutAddress",
          "type": "address"
        }
      ],
      "name": "createOffer",
      "outputs": [
        {
          "internalType": "uint256",
          "name": "",
          "type": "uint256"
        }
      ],
      "stateMutability": "payable",
      "type": "function",
      "payable": true
    },
    {
      "inputs": [
        {
          "internalType": "address",
          "name": "tokenIn",
          "type": "address"
        },
        {
          "internalType": "address",
          "name": "tokenOut",
          "type": "address"
        },
        {
          "internalType": "uint256",
          "name": "amountIn",
          "type": "uint256"
        },
        {
          "internalType": "uint256",
          "name": "amountOut",
          "type": "uint256"
        }
      ],
      "name": "createOffer",
      "outputs": [
        {
          "internalType": "uint256",
          "name": "",
          "type": "uint256"
        }
      ],
      "stateMutability": "payable",
      "type": "function",
      "payable": true
    }
  ],
  "bytecode": "0x608060405234801561001057600080fd5b50610e14806100206000396000f3fe60806040526004361061003f5760003560e01c806329afb6921461004457806350c7566c146100745780638a72ea6a146100a4578063cc1d179b146100e6575b600080fd5b61005e60048036038101906100599190610a35565b610116565b60405161006b9190610abf565b60405180910390f35b61008e60048036038101906100899190610ada565b610324565b60405161009b9190610abf565b60405180910390f35b3480156100b057600080fd5b506100cb60048036038101906100c69190610b67565b610533565b6040516100dd96959493929190610c02565b60405180910390f35b61010060048036038101906100fb9190610c63565b6105ef565b60405161010d9190610abf565b60405180910390f35b6000806101278787878733886107fc565b905080600160008054815260200190815260200160002060008201518160000160006101000a81548173ffffffffffffffffffffffffffffffffffffffff021916908373ffffffffffffffffffffffffffffffffffffffff16021790555060208201518160010160006101000a81548173ffffffffffffffffffffffffffffffffffffffff021916908373ffffffffffffffffffffffffffffffffffffffff160217905550604082015181600201556060820151816003015560808201518160040160006101000a81548173ffffffffffffffffffffffffffffffffffffffff021916908373ffffffffffffffffffffffffffffffffffffffff16021790555060a08201518160050160006101000a81548173ffffffffffffffffffffffffffffffffffffffff021916908373ffffffffffffffffffffffffffffffffffffffff160217905550905050806000015173ffffffffffffffffffffffffffffffffffffffff166323b872dd3330886040518463ffffffff1660e01b81526004016102b293929190610cca565b6020604051808303816000875af11580156102d1573d6000803e3d6000fd5b505050506040513d601f19601f820116820180604052508101906102f59190610d39565b6102fe57600080fd5b60008081548092919061031090610d95565b919050555060005491505095945050505050565b6000806103358888888888886107fc565b905080600160008054815260200190815260200160002060008201518160000160006101000a81548173ffffffffffffffffffffffffffffffffffffffff021916908373ffffffffffffffffffffffffffffffffffffffff16021790555060208201518160010160006101000a81548173ffffffffffffffffffffffffffffffffffffffff021916908373ffffffffffffffffffffffffffffffffffffffff160217905550604082015181600201556060820151816003015560808201518160040160006101000a81548173ffffffffffffffffffffffffffffffffffffffff021916908373ffffffffffffffffffffffffffffffffffffffff16021790555060a08201518160050160006101000a81548173ffffffffffffffffffffffffffffffffffffffff021916908373ffffffffffffffffffffffffffffffffffffffff160217905550905050806000015173ffffffffffffffffffffffffffffffffffffffff166323b872dd3330896040518463ffffffff1660e01b81526004016104c093929190610cca565b6020604051808303816000875af11580156104df573d6000803e3d6000fd5b505050506040513d601f19601f820116820180604052508101906105039190610d39565b61050c57600080fd5b60008081548092919061051e90610d95565b91905055506000549150509695505050505050565b60016020528060005260406000206000915090508060000160009054906101000a900473ffffffffffffffffffffffffffffffffffffffff16908060010160009054906101000a900473ffffffffffffffffffffffffffffffffffffffff16908060020154908060030154908060040160009054906101000a900473ffffffffffffffffffffffffffffffffffffffff16908060050160009054906101000a900473ffffffffffffffffffffffffffffffffffffffff16905086565b6000806106008686868633336107fc565b905080600160008054815260200190815260200160002060008201518160000160006101000a81548173ffffffffffffffffffffffffffffffffffffffff021916908373ffffffffffffffffffffffffffffffffffffffff16021790555060208201518160010160006101000a81548173ffffffffffffffffffffffffffffffffffffffff021916908373ffffffffffffffffffffffffffffffffffffffff160217905550604082015181600201556060820151816003015560808201518160040160006101000a81548173ffffffffffffffffffffffffffffffffffffffff021916908373ffffffffffffffffffffffffffffffffffffffff16021790555060a08201518160050160006101000a81548173ffffffffffffffffffffffffffffffffffffffff021916908373ffffffffffffffffffffffffffffffffffffffff160217905550905050806000015173ffffffffffffffffffffffffffffffffffffffff166323b872dd3330876040518463ffffffff1660e01b815260040161078b93929190610cca565b6020604051808303816000875af11580156107aa573d6000803e3d6000fd5b505050506040513d601f19601f820116820180604052508101906107ce9190610d39565b6107d757600080fd5b6000808154809291906107e990610d95565b9190505550600054915050949350505050565b61080461090e565b61080c61090e565b87816000019073ffffffffffffffffffffffffffffffffffffffff16908173ffffffffffffffffffffffffffffffffffffffff168152505086816020019073ffffffffffffffffffffffffffffffffffffffff16908173ffffffffffffffffffffffffffffffffffffffff1681525050858160400181815250508481606001818152505083816080019073ffffffffffffffffffffffffffffffffffffffff16908173ffffffffffffffffffffffffffffffffffffffff1681525050828160a0019073ffffffffffffffffffffffffffffffffffffffff16908173ffffffffffffffffffffffffffffffffffffffff1681525050809150509695505050505050565b6040518060c00160405280600073ffffffffffffffffffffffffffffffffffffffff168152602001600073ffffffffffffffffffffffffffffffffffffffff1681526020016000815260200160008152602001600073ffffffffffffffffffffffffffffffffffffffff168152602001600073ffffffffffffffffffffffffffffffffffffffff1681525090565b600080fd5b600073ffffffffffffffffffffffffffffffffffffffff82169050919050565b60006109cc826109a1565b9050919050565b6109dc816109c1565b81146109e757600080fd5b50565b6000813590506109f9816109d3565b92915050565b6000819050919050565b610a12816109ff565b8114610a1d57600080fd5b50565b600081359050610a2f81610a09565b92915050565b600080600080600060a08688031215610a5157610a5061099c565b5b6000610a5f888289016109ea565b9550506020610a70888289016109ea565b9450506040610a8188828901610a20565b9350506060610a9288828901610a20565b9250506080610aa3888289016109ea565b9150509295509295909350565b610ab9816109ff565b82525050565b6000602082019050610ad46000830184610ab0565b92915050565b60008060008060008060c08789031215610af757610af661099c565b5b6000610b0589828a016109ea565b9650506020610b1689828a016109ea565b9550506040610b2789828a01610a20565b9450506060610b3889828a01610a20565b9350506080610b4989828a016109ea565b92505060a0610b5a89828a016109ea565b9150509295509295509295565b600060208284031215610b7d57610b7c61099c565b5b6000610b8b84828501610a20565b91505092915050565b6000819050919050565b6000610bb9610bb4610baf846109a1565b610b94565b6109a1565b9050919050565b6000610bcb82610b9e565b9050919050565b6000610bdd82610bc0565b9050919050565b610bed81610bd2565b82525050565b610bfc816109c1565b82525050565b600060c082019050610c176000830189610be4565b610c246020830188610be4565b610c316040830187610ab0565b610c3e6060830186610ab0565b610c4b6080830185610bf3565b610c5860a0830184610bf3565b979650505050505050565b60008060008060808587031215610c7d57610c7c61099c565b5b6000610c8b878288016109ea565b9450506020610c9c878288016109ea565b9350506040610cad87828801610a20565b9250506060610cbe87828801610a20565b91505092959194509250565b6000606082019050610cdf6000830186610bf3565b610cec6020830185610bf3565b610cf96040830184610ab0565b949350505050565b60008115159050919050565b610d1681610d01565b8114610d2157600080fd5b50565b600081519050610d3381610d0d565b92915050565b600060208284031215610d4f57610d4e61099c565b5b6000610d5d84828501610d24565b91505092915050565b7f4e487b7100000000000000000000000000000000000000000000000000000000600052601160045260246000fd5b6000610da0826109ff565b91507fffffffffffffffffffffffffffffffffffffffffffffffffffffffffffffffff821415610dd357610dd2610d66565b5b60018201905091905056fea2646970667358221220a81d2ea8f2704d930bdc2a9e7de531ff1ea3a7141a989666478fbdd9851a44dc64736f6c634300080a0033",
  "immutableReferences": {},
  "source": "// SPDX-License-Identifier: MIT\npragma solidity >=0.4.22 <0.9.0;\n\nimport \"@openzeppelin/contracts/utils/math/SafeMath.sol\";\nimport \"@openzeppelin/contracts/token/ERC20/IERC20.sol\";\n\ncontract MarsBaseExchange {\n\n    using SafeMath for uint256;\n\n    uint256 nextOfferId;\n\n    struct MBOffer {\n      IERC20 tokenIn;\n      IERC20 tokenOut;\n      uint256 amountIn;\n      uint256 amountOut;\n      address offerer;\n      address payoutAddress;\n    }\n\n    mapping (uint256 => MBOffer) public offers;\n\n    function createOffer(address tokenIn, address tokenOut, uint256 amountIn, uint256 amountOut, address offerer, address payoutAddress) public virtual payable returns (uint256) {\n      MBOffer memory offer = initOffer(tokenIn, tokenOut, amountIn, amountOut, offerer, payoutAddress);\n      offers[nextOfferId] = offer;\n\n      require(offer.tokenIn.transferFrom(msg.sender, address(this), amountIn));\n      \n      nextOfferId ++;\n\n      return nextOfferId;\n    }\n\n    function createOffer(address tokenIn, address tokenOut, uint256 amountIn, uint256 amountOut, address payoutAddress) public virtual payable returns (uint256) {\n      MBOffer memory offer = initOffer(tokenIn, tokenOut, amountIn, amountOut, msg.sender, payoutAddress);\n      offers[nextOfferId] = offer;\n\n      require(offer.tokenIn.transferFrom(msg.sender, address(this), amountIn));\n      \n      nextOfferId ++;\n\n      return nextOfferId;\n    }\n\n    function createOffer(address tokenIn, address tokenOut, uint256 amountIn, uint256 amountOut) public virtual payable returns (uint256) {\n\n      MBOffer memory offer = initOffer(tokenIn, tokenOut, amountIn, amountOut, msg.sender, msg.sender);\n      offers[nextOfferId] = offer;\n\n      require(offer.tokenIn.transferFrom(msg.sender, address(this), amountIn));\n      \n      nextOfferId ++;\n\n      return nextOfferId;\n    }\n\n    function initOffer(address tokenIn, address tokenOut, uint256 amountIn, uint256 amountOut, address offerer, address payoutAddress) private pure returns (MBOffer memory) {\n      MBOffer memory offer;\n      \n      offer.tokenIn = IERC20(tokenIn);\n      offer.tokenOut = IERC20(tokenOut);\n      offer.amountIn = amountIn;\n      offer.amountOut = amountOut;\n      offer.offerer = offerer;\n      offer.payoutAddress = payoutAddress;\n\n      return offer;\n    }\n\n}\n",
  "sourcePath": "C:\\Users\\sshef\\Downloads\\projects\\marsbase\\contracts\\MarsBaseExchange.sol",
  "compiler": {
    "name": "solc",
    "version": "0.8.10+commit.fc410830.Emscripten.clang"
  },
  "schemaVersion": "3.4.3",
  "updatedAt": "2021-12-05T05:32:13.127Z",
  "networkType": "ethereum",
  "devdoc": {
    "kind": "dev",
    "methods": {},
    "version": 1
  },
  "userdoc": {
    "kind": "user",
    "methods": {},
    "version": 1
  }
}