{
  "contractName": "MarsBaseExchange",
  "abi": [
    {
      "inputs": [],
      "stateMutability": "nonpayable",
      "type": "constructor"
    },
    {
      "inputs": [
        {
          "internalType": "uint256",
          "name": "",
          "type": "uint256"
        }
      ],
      "name": "offers",
      "outputs": [
        {
          "internalType": "contract IERC20",
          "name": "tokenIn",
          "type": "address"
        },
        {
          "internalType": "contract IERC20",
          "name": "tokenOut",
          "type": "address"
        },
        {
          "internalType": "uint256",
          "name": "amountIn",
          "type": "uint256"
        },
        {
          "internalType": "uint256",
          "name": "amountOut",
          "type": "uint256"
        },
        {
          "internalType": "address",
          "name": "offerer",
          "type": "address"
        }
      ],
      "stateMutability": "view",
      "type": "function"
    },
    {
      "inputs": [
        {
          "internalType": "address",
          "name": "tokenIn",
          "type": "address"
        },
        {
          "internalType": "address",
          "name": "tokenOut",
          "type": "address"
        },
        {
          "internalType": "uint256",
          "name": "amountIn",
          "type": "uint256"
        },
        {
          "internalType": "uint256",
          "name": "amountOut",
          "type": "uint256"
        },
        {
          "internalType": "address",
          "name": "offerer",
          "type": "address"
        }
      ],
      "name": "createOffer",
      "outputs": [
        {
          "internalType": "uint256",
          "name": "",
          "type": "uint256"
        }
      ],
      "stateMutability": "payable",
      "type": "function"
    }
  ],
  "bytecode": "0x608060405234801561001057600080fd5b50610672806100206000396000f3fe6080604052600436106100295760003560e01c806329afb6921461002e5780638a72ea6a1461005e575b600080fd5b61004860048036038101906100439190610395565b61009f565b604051610055919061041f565b60405180910390f35b34801561006a57600080fd5b506100856004803603810190610080919061043a565b610266565b6040516100969594939291906104d5565b60405180910390f35b60008060016000805481526020019081526020016000209050868160000160006101000a81548173ffffffffffffffffffffffffffffffffffffffff021916908373ffffffffffffffffffffffffffffffffffffffff160217905550858160010160006101000a81548173ffffffffffffffffffffffffffffffffffffffff021916908373ffffffffffffffffffffffffffffffffffffffff160217905550848160020181905550838160030181905550828160040160006101000a81548173ffffffffffffffffffffffffffffffffffffffff021916908373ffffffffffffffffffffffffffffffffffffffff1602179055508060000160009054906101000a900473ffffffffffffffffffffffffffffffffffffffff1673ffffffffffffffffffffffffffffffffffffffff166323b872dd3330886040518463ffffffff1660e01b81526004016101f493929190610528565b6020604051808303816000875af1158015610213573d6000803e3d6000fd5b505050506040513d601f19601f820116820180604052508101906102379190610597565b61024057600080fd5b600080815480929190610252906105f3565b919050555060005491505095945050505050565b60016020528060005260406000206000915090508060000160009054906101000a900473ffffffffffffffffffffffffffffffffffffffff16908060010160009054906101000a900473ffffffffffffffffffffffffffffffffffffffff16908060020154908060030154908060040160009054906101000a900473ffffffffffffffffffffffffffffffffffffffff16905085565b600080fd5b600073ffffffffffffffffffffffffffffffffffffffff82169050919050565b600061032c82610301565b9050919050565b61033c81610321565b811461034757600080fd5b50565b60008135905061035981610333565b92915050565b6000819050919050565b6103728161035f565b811461037d57600080fd5b50565b60008135905061038f81610369565b92915050565b600080600080600060a086880312156103b1576103b06102fc565b5b60006103bf8882890161034a565b95505060206103d08882890161034a565b94505060406103e188828901610380565b93505060606103f288828901610380565b92505060806104038882890161034a565b9150509295509295909350565b6104198161035f565b82525050565b60006020820190506104346000830184610410565b92915050565b6000602082840312156104505761044f6102fc565b5b600061045e84828501610380565b91505092915050565b6000819050919050565b600061048c61048761048284610301565b610467565b610301565b9050919050565b600061049e82610471565b9050919050565b60006104b082610493565b9050919050565b6104c0816104a5565b82525050565b6104cf81610321565b82525050565b600060a0820190506104ea60008301886104b7565b6104f760208301876104b7565b6105046040830186610410565b6105116060830185610410565b61051e60808301846104c6565b9695505050505050565b600060608201905061053d60008301866104c6565b61054a60208301856104c6565b6105576040830184610410565b949350505050565b60008115159050919050565b6105748161055f565b811461057f57600080fd5b50565b6000815190506105918161056b565b92915050565b6000602082840312156105ad576105ac6102fc565b5b60006105bb84828501610582565b91505092915050565b7f4e487b7100000000000000000000000000000000000000000000000000000000600052601160045260246000fd5b60006105fe8261035f565b91507fffffffffffffffffffffffffffffffffffffffffffffffffffffffffffffffff821415610631576106306105c4565b5b60018201905091905056fea2646970667358221220b00cd82d81239bde8dc0fb2402e67c19f60c5802776cb8da96f00e352468960864736f6c634300080a0033",
  "immutableReferences": {},
  "source": "// SPDX-License-Identifier: MIT\npragma solidity >=0.4.22 <0.9.0;\n\nimport \"@openzeppelin/contracts/utils/math/SafeMath.sol\";\nimport \"@openzeppelin/contracts/token/ERC20/IERC20.sol\";\n\ncontract MarsBaseExchange {\n\n    using SafeMath for uint256;\n\n    uint256 nextOfferId;\n    struct MBOffer {\n      IERC20 tokenIn;\n      IERC20 tokenOut;\n      uint256 amountIn;\n      uint256 amountOut;\n      address offerer;\n    }\n\n    constructor() public {\n    }\n\n    mapping (uint256 => MBOffer) public offers;\n\n    function createOffer(address tokenIn, address tokenOut, uint256 amountIn, uint256 amountOut, address offerer) public payable returns (uint256) {\n      MBOffer storage offer = offers[nextOfferId];\n      offer.tokenIn = IERC20(tokenIn);\n      offer.tokenOut = IERC20(tokenOut);\n      offer.amountIn = amountIn;\n      offer.amountOut = amountOut;\n      offer.offerer = offerer;\n      require(offer.tokenIn.transferFrom(msg.sender, address(this), amountIn));\n      nextOfferId ++;\n      return nextOfferId;\n    }\n\n}\n",
  "sourcePath": "C:\\Users\\sshef\\Downloads\\projects\\marsbase\\contracts\\MarsBaseExchange.sol",
  "compiler": {
    "name": "solc",
    "version": "0.8.10+commit.fc410830.Emscripten.clang"
  },
  "schemaVersion": "3.4.3",
  "updatedAt": "2021-12-05T03:38:00.583Z",
  "devdoc": {
    "kind": "dev",
    "methods": {},
    "version": 1
  },
  "userdoc": {
    "kind": "user",
    "methods": {},
    "version": 1
  }
}